:100000000C947B110C94AC110C94AC110C94AC11AD
:100010000C94AC110C94AC110C94AC110C94AC116C
:100020000C94AC110C94AC110C94AC110C94AC115C
:100030000C94AC110C94AC110C94AC110C94AC114C
:100040000C94AC110C94A1420C94AC110C94AC1116
:100050000C94AC110C94AC110C94B66A0C94B33A99
:100060000C94AC110C9431380C94AC110C94AC1170
:100070000C94AC110C94AC110C94AC110C94AC110C
:100080000C94AC110C94AC110C94AC110C94AC11FC
:100090000C94AC110C94AC110C94AC110C94AC11EC
:1000A0000C94AC110C94AC110C94AC110C94AC11DC
:1000B0000C94AC110C94AC110C94AC110C94AC11CC
:1000C0000C94AC110C94AC110C94AC110C94AC11BC
:1000D0000C94AC110C94AC110C94AC110C94AC11AC
:1000E0000C94AC11A038A338923896389C38DA3882
:1000F000A738AB38B138B538B938BF38C338C73886
:10010000DA38CD38D138D538CF39D439D939E3397F
:10011000ED39663AF739FF39073A113A1B3A253A71
:10012000343A3E3A663A483A523A5C3A084AD73B41
:100130003BCE016E84BCBFFDC12F3D6C74319ABDB6
:1001400056833DDA3D00C77F11BED9E4BB4C3E91DA
:100150006BAAAABE000000803F05A84CCDB2D44EC9
:10016000B93836A9020C50B9918688083CA6AAAACB
:100170002ABE000000803F004E414E494E4954596E
:10018000494E46CDCCCC3D0AD7233C17B7D1387762
:10019000CC2B329595E6241FB14F0A000020410078
:1001A00000C84200401C4620BCBE4CCA1B0E5AAEC2
:1001B000C59D74434F4D4D554E49434154494F4E93
:1001C0000044525952554E004552524F5253004925
:1001D0004E464F004543484F0020746F6F206C6FB0
:1001E0006E6720657874727573696F6E20707265C2
:1001F00076656E7465640A0047322F47332062616A
:100200006420706172616D65746572730A00536C6D
:100210006565702E2E2E00526573756D696E6720B0
:100220007072696E74004131304D2072656164797D
:100230002E00436C69636B20746F20726573756D5B
:10024000652E2E2E004E6F206D6F76652E00456E4A
:10025000642066696C65206C6973740A0042656786
:10026000696E2066696C65206C6973740A00256983
:10027000730025696D20256973002569682025694B
:100280006D2025697300256964202569682025692A
:100290006D20256973002569792025696420256909
:1002A000682025696D20256973005072696E74207D
:1002B00074696D653A200045256920257300413138
:1002C000304D2072656164792E00D401CF01C801E0
:1002D000C101B3016F66660044454255473A004B81
:1002E000494C4C45442E20004D3131332053006F92
:1002F0006B0048656174696E6720646F6E652E00DF
:1003000020573A00452569202573004131304D20A2
:1003100072656164792E0042656420646F6E652E9B
:100320000020573A004265642048656174696E6731
:100330002E004131304D204F66662E00454D45520E
:1003400047454E43595F5041525345520043415334
:10035000455F4C494748545F4252494748544E45CF
:10036000535300544F47474C455F4C4947485453FB
:1003700000534F4654574152455F504F5745520026
:100380004255494C445F50455243454E54004C45FC
:1003900056454C494E475F44415441005A5F5052C4
:1003A0004F4245004155544F4C4556454C00505224
:1003B000494E545F4A4F420050524F4752455353A3
:1003C000004155544F5245504F52545F54454D5083
:1003D00000564F4C554D45545249430045455052E7
:1003E0004F4D0053455249414C5F584F4E5F584F57
:1003F0004646004649524D574152455F4E414D4594
:100400003A4D61726C696E20312E312E38202847AA
:1004100069746875622920534F555243455F434FB5
:1004200044455F55524C3A68747470733A2F2F6785
:1004300069746875622E636F6D2F4D61726C696EA1
:100440004669726D776172652F4D61726C696E20BD
:1004500050524F544F434F4C5F56455253494F4EA5
:100460003A312E30204D414348494E455F54595052
:10047000453A4131304D2045585452554445525F1C
:10048000434F554E543A3120555549443A636564BB
:1004900065326132662D343161322D343734382D76
:1004A000396231322D63353563363266333637661D
:1004B000660A002F2F20007A5F6D696E3A2000795E
:1004C0005F6D696E3A2000785F6D696E3A20005268
:1004D00065706F7274696E6720656E6473746F7097
:1004E000207374617475730A004D31343520533CA8
:1004F000696E6465783E206F7574206F6620726146
:100500006E67652028302D31290A005761726E69A7
:100510006E673A204D697820666163746F7273204C
:100520006D7573742061646420757020746F203160
:100530002E302E205363616C696E672E0A0053655E
:100540007474696E672054726176656C20416363D0
:10055000656C65726174696F6E3A200053657474DE
:10056000696E6720526574726163742041636365CC
:100570006C65726174696F6E3A20005365747469BA
:100580006E67205072696E7420416363656C65729A
:100590006174696F6E3A200053657474696E6720E8
:1005A0005072696E7420616E642054726176656C5D
:1005B00020416363656C65726174696F6E3A2000F7
:1005C000205A00205900580020204D61783A200020
:1005D000205A00205900580020204D696E3A200012
:1005E0004F6E20004F666600536F667420656E6420
:1005F00073746F70733A2000000125272318FF1FC2
:10060000211D1CFF19171B1EFFFF0C0409FFFFFF14
:100610002E2C0CFFFF312F3004400AFF41FFFFFF5B
:10062000FFFFFF20643A0020693A0020703A002062
:10063000643A0020693A0020703A004B642000239D
:10064000646566696E65202044454641554C545F9B
:10065000004B69200023646566696E65202044456F
:100660004641554C545F004B702000236465666919
:100670006E65202044454641554C545F0050494426
:10068000204175746F74756E652066696E69736854
:100690006564212050757420746865206C617374E2
:1006A000204B702C204B6920616E64204B642063CA
:1006B0006F6E7374616E74732066726F6D20626505
:1006C0006C6F7720696E746F20436F6E6669677513
:1006D000726174696F6E2E680A005049442041753A
:1006E000746F74756E65206661696C656421207431
:1006F000696D656F75740A00504944204175746FC7
:1007000074756E65206661696C6564212054656D41
:10071000706572617475726520746F6F20686967A7
:10072000680A00204B643A2000204B693A200020E0
:100730004B703A20000A20436C6173736963205048
:100740004944200A002054753A2000204B753A2075
:1007500000206D61783A2000206D696E3A200020FB
:10076000643A200020626961733A20004361736536
:10077000206C696768743A2000556E6B6E6F776EF7
:1007800020636F6D6D616E643A2022004C696E6566
:10079000204E756D626572206973206E6F74204CF7
:1007A000617374204C696E65204E756D6265722BA5
:1007B000312C204C617374204C696E653A20004BDB
:1007C000494C4C45442E200053544F505045442E24
:1007D00020005072696E7465722073746F7070655A
:1007E000642064756520746F206572726F72732E59
:1007F0002046697820746865206572726F72206186
:100800006E6420757365204D39393920746F2072FC
:100810006573746172742E202854656D7065726101
:10082000747572652069732072657365742E205328
:1008300065742069742061667465722072657374D2
:10084000617274696E67290A004E6F2043686563A0
:100850006B73756D2077697468206C696E65206EA6
:10086000756D6265722C204C617374204C696E65E5
:100870003A2000636865636B73756D206D69736DF5
:10088000617463682C204C617374204C696E653A06
:1008900020004D313130004D33310053442072651A
:1008A0006164206572726F720A00446F6E65207019
:1008B00072696E74696E672066696C650A0020490A
:1008C0006E76616C696420657874727564657220F7
:1008D0000046696C652064656C657465643A004423
:1008E000656C6574696F6E206661696C65642C2047
:1008F00046696C653A20006F70656E206661696CB0
:1009000065642C2046696C653A200050726F7465EE
:10091000637465642050696E0A00205A3A002059B9
:100920003A0020436F756E7420583A0020453A0013
:10093000205A3A0020593A00583A003A0043617070
:100940003A004B494C4C45442E2000202D20496E46
:1009500076616C6964206578747275646572206E66
:10096000756D62657220210A002D2D2D2D2D2D0013
:100970007C4D61726C696E7C002D2D2D2D2D2D000E
:10098000687474703A2F2F6D61726C696E66772E81
:100990006F726700687474703A2F2F6D61726C69A2
:1009A0006E66772E6F72670020312E312E380072FE
:1009B00065636F766572792564002020506C616EE6
:1009C0006E657242756666657242797465733A2027
:1009D000002046726565204D656D6F72793A200082
:1009E000436F6D70696C65643A20417567202038EB
:1009F00020323031380A00207C20417574686F72D3
:100A00003A20286E6F6E652C2064656661756C7483
:100A100020636F6E666967290A00323031372D31E5
:100A2000322D32352031323A303000204C6173742F
:100A300020557064617465643A2000312E312E387F
:100A40000A004D61726C696E0020536F66747761A5
:100A500072652052657365740A002057617463687B
:100A6000646F672052657365740A002042726F7765
:100A70006E206F75742052657365740A0020457886
:100A80007465726E616C2052657365740A00506FF4
:100A900077657255700A0073746172740A0065722A
:100AA000726F722077726974696E6720746F206646
:100AB000696C650A00456E6473746F7073202563FA
:100AC00020256320256320256300205A3A00205901
:100AD0003A0020583A00656E6473746F7073206832
:100AE00069743A200047323820580047323820597C
:100AF000004732382058004D3130392054302053CF
:100B00002575004D3139302053257500446F6E65D1
:100B100020736176696E672066696C652E0A004DE8
:100B2000323900436172642072656D6F76656400CE
:100B30004361726420696E736572746564000000BD
:100B40002100240027002A002D003000330001017D
:100B50000000040107010A0100002200250028000E
:100B60002B002E00310034000201000005010801B5
:100B70000B01000020002300260029002C002F007C
:100B80003200000100000301060109010505050509
:100B9000070508080808020202020A0A08080404F5
:100BA0000404010101010101010103030303030323
:100BB0000303040707070C0C0C0C0C0C0C0C0202B2
:100BC000020206060606060606060B0B0B0B0B0BAF
:100BD0000B0B01021020200808102040102040803C
:100BE00002010201080402010102040810204080F1
:100BF000804020100804020180040201804020107F
:100C000008040201080402010102040810204080C7
:100C1000010204081020408000000A0B02090C0D9C
:100C20000E0807030401000000000000000000009F
:100C300000000000000000000000000000000000B4
:100C40000000000012111000000000000000000071
:100C5000000000000000000000000000000024F47C
:100C6000D43050C38E20C2A24017828B7011127AEA
:100C7000910D816CD90AA861E108C75866076151D6
:100C800043061E4B5D05C145A7041A411104093DE9
:100C90009803713931034036DB0265339102D43059
:100CA0005402802E1D02632CEE01752AC501B02866
:100CB000A001102781018F2564012B244B01E02224
:100CC0003401AC211F018D200D01801FFC00841E0A
:100CD000ED00971DDF00B81CD200E61BC600201BEC
:100CE000BC00641AB200B219A8000A19A0006A1860
:100CF0009900D117910040178B00B516840031166A
:100D00007E00B31579003A157300C7146F005814AC
:100D10006A00EE1366008813630025135E00C71295
:100D20005B006C12570015125400C1115100701174
:100D30004F0021114B00D61049008D10470046107E
:100D4000440002104200C00F4000800F3E00420FDE
:100D50003C00060F3B00CB0E3800930E37005C0EB4
:100D60003500270E3400F30D3200C10D3100900D17
:100D70003000600D2E00320D2D00050D2C00D90C19
:100D80002B00AE0C2900850C29005C0C2700350CCB
:100D900027000E0C2600E80B2400C40B2400A00B37
:100DA00023007D0B23005A0B2100390B2100180B67
:100DB0002000F80A1F00D90A1E00BB0A1E009D0A67
:100DC0001D00800A1D00630A1C00470A1B002C0A34
:100DD0001B00110A1A00F7091A00DD091900C409DD
:100DE0001900AB091900920917007B091800630963
:100DF00017004C09160036091600200916000A09CA
:100E00001500F5081500E0081400CC081400B80817
:100E10001400A4081400900813007D0812006B0849
:100E20001300580812004608120034081100230865
:100E300011001208110001081100F0071000E0076E
:100E40001000D0071000C0071000B0070F00A10766
:100E5000100091070E0083070F0074070F0065074D
:100E60000E0057070E0049070E003B070D002E0726
:100E70000E0020070D0013070D0006070D00F906F0
:100E80000C00ED060D00E0060C00D4060C00C806B0
:100E90000C00BC060C00B0060C00A4060B00990662
:100EA0000C008D060B0082060B0077060B006C060B
:100EB0000B0061060A0057060B004C060A004206AA
:100EC0000A0038060A002E060A0024060A001A063E
:100ED0000A001006090007060A00FD050900F405CE
:100EE0000900EB050900E2050900D9050900D00554
:100EF0000900C7050900BE050900B5050800AD05D4
:100F00000800A50509009C050800940508008C054B
:100F10000800840508007C050800740508006C05BD
:100F20000700650508005D050700560508004E0529
:100F30000700470507004005080038050700310590
:100F400007002A050700230507001C0506001605F3
:100F500007000F0507000805060002050700FB044F
:100F60000600F5040700EE040600E8040600E204AB
:100F70000700DB040600D5040600CF040600C90400
:100F80000600C3040600BD040600B7040600B10451
:100F90000500AC040600A6040600A00405009B049E
:100FA000060095040500900406008A0405008504E7
:100FB0000500800406007A0405007504050070042D
:100FC00005006B04050066040500610405005C046F
:100FD000050057040500520405004D0405004804AF
:100FE0000500430405003E0404003A0405003504EE
:100FF0000500300404002C04050027040400230429
:1010000005001E0404001A0404001604050011045F
:1010100004000D0404000904050004040400000495
:101020000400FC030400F8030400F4030400F003CC
:101030000400EC030400E8030400E4030400E003FC
:101040000400DC030400D8030400D4030400D0032C
:101050000400CC030400C8030300C503030024F408
:1010600004D9201BC40C5C0E9804C4095F026507F8
:101070007101F405F900FB04B30048048700C103C3
:1010800069005803550003034500BE023A0084027C
:10109000310053022A002902250004022000E40145
:1010A0001C00C8011900AF01170098011400840149
:1010B0001300710110006101100051010E00430185
:1010C0000D0036010B002B010B0020010B00150158
:1010D00009000C01090003010800FB000800F300EF
:1010E0000800EB000700E4000600DE000600D80060
:1010F0000600D2000600CC000500C7000500C200B3
:101100000500BD000400B9000400B5000400B100F2
:101110000400AD000400A9000400A5000300A20023
:1011200003009F0004009B0003009800030095004B
:10113000020093000300900003008D0002008B006A
:101140000300880002008600020084000300810082
:1011500002007F0002007D0002007B000200790097
:1011600002007700010076000200740002007200A5
:101170000100710002006F0002006D0001006C00B0
:1011800002006A00010069000200670001006600B9
:1011900001006500010064000200620001006100BE
:1011A0000100600001005F0002005D0001005C00C2
:1011B00001005B0001005A000100590001005800C5
:1011C00001005700010056000100550001005400C5
:1011D00001005300000053000100520001005100C3
:1011E0000100500001004F0001004E0000004E00C1
:1011F00001004D0001004C0001004B0000004B00BD
:1012000001004A00010049000100480000004800B8
:1012100001004700010046000000460001004500B3
:1012200000004500010044000100430000004300AD
:1012300001004200000042000100410000004100A6
:101240000100400001003F0000003F0001003E009F
:1012500000003E0001003D0000003D0001003C0098
:1012600000003C0000003C0001003B0000003B008F
:1012700001003A0000003A00010039000000390086
:10128000010038000000380000003800010037007D
:101290000000370001003600000036000000360074
:1012A0000100350000003500000035000100340069
:1012B000000034000000340001003300000033005F
:1012C0000000330001003200000032000000320054
:1012D0000100310000003100000031000100300049
:1012E000000030000000300001002F0000002F003F
:1012F00000002F0000002F0001002E0000002E0033
:1013000000002E0001002D0000002D0000002D0027
:1013100000002D0001002C0000002C0000002C001B
:1013200000002C0001002B0000002B0000002B000F
:1013300000002B0001002A0000002A0000002A0003
:1013400000002A00010029000000290000002900F7
:1013500000002900000029000100280000002800EA
:1013600000002800000028000000280001002700DD
:1013700000002700000027000000270000002700D1
:1013800001002600000026000000260000002600C4
:1013900000002600010025000000250000002500B7
:1013A00000002500000025000000250001002400A9
:1013B000000024000000240000002400000024009D
:1013C0000100230000002300000023000000230090
:1013D0000000230000002300000023000100220081
:1013E0000000220000002200000022000000220075
:1013F0000000220001002100000021000000210067
:101400000000210000002100000021000000210058
:10141000010020000000200000002000000020004B
:10142000000020000000200000002000000020003C
:1014300001001F0000001F0000001F0000001F002F
:1014400000001F0000001F0000001F0001001E0020
:1014500000001E0000001E0000001E0000004D38AD
:101460003420582059205A20450025732C005A2535
:10147000752C45256C752C50256C752C5425752CB8
:101480004225752C004131304D2072656164792E02
:10149000004572723A4E6F2046696C616D656E74DC
:1014A0000056652D6A65726B0056652D6A65726B14
:1014B0000056652D6A65726B00567A2D6A65726BEF
:1014C00000567A2D6A65726B0056792D6A65726BCB
:1014D0000056792D6A65726B0056792D6A65726BBC
:1014E0000056782D6A65726B0056782D6A65726BAE
:1014F0000056782D6A65726B004D6F74696F6E00CF
:101500004573746570732F6D6D00457374657073EA
:101510002F6D6D005A73746570732F6D6D005A7363
:10152000746570732F6D6D005973746570732F6DD2
:101530006D005973746570732F6D6D005873746509
:1015400070732F6D6D005873746570732F6D6D001F
:101550004D6F74696F6E0053746570732F6D6D00FD
:101560004A65726B00416363656C65726174696F93
:101570006E0056656C6F6369747900436F6E7472A8
:101580006F6C0046696C616D656E74204F66660015
:1015900046696C616D656E74204F6E200046696C03
:1015A000616D656E74204F66660046696C616D659D
:1015B0006E74204F6E200046696C2E204469612EA7
:1015C0000046696C2E204469612E004F6666004F0C
:1015D0006E20004520696E206D6D3300436F6E7480
:1015E000726F6C0043616E6E6F7420656E7465720D
:1015F000207375626469723A2000052E2E004D61D9
:10160000696E004572726F722077726974696E67D5
:1016100020746F20454550524F4D210A00290A0081
:101620002062797465733B20637263200053657494
:1016300074696E67732053746F7265642028002983
:101640000A002062797465733B2063726320007026
:101650006F7765726F66662053746F7265642028B9
:1016600000496E697469616C697A6520454550521C
:101670004F4D00436F6E74726F6C00526573746FE0
:101680007265206661696C73616665004C6F6164A8
:101690002073657474696E677300496E697469615B
:1016A0006C697A6520454550524F4D0053746F72F6
:1016B000652073657474696E67730046696C616D4B
:1016C000656E74004D6F74696F6E0054656D706562
:1016D000726174757265004D61696E005072656863
:1016E0006561742041425320636F6E6600507265DD
:1016F0006865617420504C4120636F6E66005049EC
:10170000442D44005049442D44005049442D490083
:101710005049442D49005049442D50005049442D12
:10172000500020022046616374002002204661635D
:1017300074002002204D6178002002204D61780065
:101740002002204D6178002002204D696E002002A9
:10175000204D696E002002204D696E004F666600C4
:101760004F6E20004175746F74656D700046616E38
:101770002073706565640046616E207370656564F2
:101780000042656400426564004E6F7A7A6C6500C1
:101790004E6F7A7A6C6500436F6E74726F6C005393
:1017A000746F72652073657474696E677300426547
:1017B0006400426564004E6F7A7A6C65004E6F7A01
:1017C0007A6C650046616E207370656564004661E1
:1017D0006E2073706565640054656D706572617428
:1017E000757265006265640A002C207379737465F4
:1017F0006D2073746F707065642120486561746535
:10180000725F49443A200070012C0190012701B019
:10181000012201C0011D01F0011801100213013065
:10182000020E016002090190020401C002FF0000E3
:1018300003FA004003F5008003F000D003EB002022
:1018400004E6007004E100E004DC004005D700C0BD
:1018500005D2004006CD00D006C8008007C3003086
:1018600008BE00F008B900C009B400B00AAF00B06B
:101870000BAA00D00CA500000EA000500F9B00C0CA
:101880001096005012910000148C00C0158700B013
:10189000178200B0197D00D01B7800001E73004035
:1018A000206E0090226900F024640040275F0090C1
:1018B000295A00E02B5500102E500020304B00100C
:1018C000324600E033410090353C0010373700705D
:1018D000383200A0392D00B03A2800A03B23006028
:1018E0003C1E00103D1900903D1400103E0F00708A
:1018F0003E0A00C03E0500003F0000403FFBFF8065
:101900003FF6FFC03FF1FF4572723A204D494E54F9
:10191000454D5020424544004572723A204D494E93
:1019200054454D50004D494E54454D5020747269F8
:10193000676765726564004572723A204D4158547C
:10194000454D5020424544004572723A204D415861
:1019500054454D50004D415854454D5020747269C6
:1019600067676572656400202F002042403A0020BE
:10197000403A0000000000010204040000001C1CAA
:101980000C04040402010000000000040810000020
:10199000000000001C1F11111F0000000619180391
:1019A000130C00040E1F041C000000000E13151180
:1019B0000E00001C10181705060500040A0A0A0A82
:1019C00011110E0C12120C00000000001F15111551
:1019D0001F0000466C6F7700466C6F770046616EA3
:1019E0002073706565640046616E20737065656480
:1019F0000042656400426564004E6F7A7A6C65004F
:101A00004E6F7A7A6C65005370656564005370653B
:101A10006564004D61696E0050726568656174208F
:101A2000504C4120456E64005072656865617420B9
:101A3000504C4120426564005072656865617420B5
:101A4000504C41005072657061726500507265685B
:101A50006561742041425320456E64005072656890
:101A6000656174204142532042656400507265688C
:101A70006561742041425300507265706172650067
:101A80004261636B004E65787420636F726E65729D
:101A9000005072656865617420504C4100436F6F5F
:101AA0006C646F776E0050726568656174204142A6
:101AB000530044697361626C65207374657070656E
:101AC0007273004D3834004C6576656C20636F721C
:101AD0006E657273004175746F20686F6D650047A5
:101AE0003238004D6F76652061786973004D616909
:101AF0006E007C3C3E5E2B3D3F2F5B5D3B2C2A22E3
:101B00005C00200D0A62797465733B206372632068
:101B10006572726F722000200D0A62797465733BE2
:101B200020637263206572726F722000290A0020A0
:101B300062797465733B206372632000706F776510
:101B4000726F66662073746F726564207365747457
:101B5000696E6773207265747269657665642028A2
:101B600000202863616C63756C6174656429210AC7
:101B70000020213D2000454550524F4D2043524307
:101B8000206D69736D61746368202D202873746FF4
:101B9000726564292000290A002062797465733B0C
:101BA0002063726320002073746F72656420736514
:101BB0007474696E677320726574726965766564A2
:101BC000202800204D61726C696E3D563437290A19
:101BD0000028454550524F4D3D00454550524F4D10
:101BE0002076657273696F6E206D69736D617463C1
:101BF00068200048617264636F64656420446566B0
:101C000061756C742053657474696E6773204C6FD2
:101C1000616465640A0088130000881300003200C4
:101C20000000881300000000C8430000C843000003
:101C3000C843000034429A99A0429A99A1420000F8
:101C4000C8430000AA434D61782054656D703A2066
:101C5000313530004D696E2054656D703A20350085
:101C6000544265643A4550434F53203130304B0065
:101C70004D61782054656D703A20323735004D69DA
:101C80006E2054656D703A20350054303A2045502E
:101C9000434F53203130304B005053553A20476565
:101CA0006E657269630050726F746F636F6C3A2077
:101CB000312E3000426175643A2032353030303098
:101CC00000475432353630205265762E4100457833
:101CD000747275646572733A203100687474703A76
:101CE0002F2F6D61726C696E66772E6F726700417F
:101CF00031304D00323031372D31322D32352031F7
:101D0000323A303000312E312E38004D61726C691C
:101D10006E00546865726D6973746F727300426F00
:101D200061726420496E666F005072696E746572EC
:101D300020496E666F004D61696E004D3130342070
:101D40005325750047393220452575004739322023
:101D50005A25752E2575004D353030004E4F202008
:101D600000596573202000526573756D652070728F
:101D7000696E74203F0025753A2530327500253094
:101D800032753A25303275002D2D2D005344005AFE
:101D900000202020004D78004D785E0053442070D4
:101DA00072696E74696E67206279746520004E6F87
:101DB00074205344207072696E74696E670A005310
:101DC000442063617264206F6B0A006F70656E520D
:101DD0006F6F74206661696C65640A00766F6C755C
:101DE0006D652E696E6974206661696C65640A00B0
:101DF000534420696E6974206661696C0A006175DC
:101E0000746F25692E670000006D69782070726517
:101E100063656E74006D69782070726563656E74B9
:101E200000000074656D706C6174650074656D70A0
:101E30006C6174650066696C616D656E7431006615
:101E4000696C616D656E7430004D69786572005023
:101E500072696E74207061757365640000507269F8
:101E60006E742061626F72746564004E6F2053441B
:101E70002063617264005072696E742066726F6DC7
:101E80002053440053746F70207072696E74005256
:101E90006573756D65207072696E7400506175733D
:101EA00065207072696E740041626F7574205072A3
:101EB000696E746572004D6978657200436F6E7467
:101EC000726F6C00507265706172650054756E655A
:101ED00000496E666F2073637265656E0020746FD3
:101EE0006F206C6F6E6720657874727573696F6EA2
:101EF0002070726576656E7465640A004D32340038
:101F00004D32332025730057726974696E672074EF
:101F10006F2066696C653A20006F70656E2066619F
:101F2000696C65642C2046696C653A20006F7065A9
:101F30006E206661696C65642C2046696C653A2088
:101F40000046696C652073656C65637465640A009E
:101F50002053697A653A200046696C65206F706588
:101F60006E65643A20006F70656E206661696C650D
:101F7000642C2046696C653A20002066696C653ADD
:101F80002000646F696E67006672657368004E6F4B
:101F9000772000454E4420535542524F5554494EE8
:101FA000450A002220706F73002220706172656EF6
:101FB000743A2200535542524F5554494E452043DE
:101FC000414C4C207461726765743A22004B494C55
:101FD0004C45442E2000747279696E6720746F201E
:101FE00063616C6C207375622D67636F6465206636
:101FF000696C6573207769746820746F6F206D61F8
:102000006E79206C6576656C732E204D4158206C7E
:102010006576656C2069733A004572726F723A009A
:1020200043616E6E6F74206F70656E2073756264AD
:1020300069722000656E7175657565696E6720222D
:10204000006563686F3A00526573656E643A2000FC
:102050006F6B00627573793A2070617573656420E7
:10206000666F7220696E7075740A00627573793AD2
:102070002070617573656420666F72207573657278
:102080000A00627573793A2070726F6365737369C1
:102090006E670A004B494C4C45442E20004B494C7E
:1020A0004C2063617573656420627920746F6F20C2
:1020B0006D75636820696E61637469766520746903
:1020C0006D65202D2063757272656E7420636F6D6F
:1020D0006D616E643A2000506C65617365207265B5
:1020E000736574005052494E5445522048414C5437
:1020F0004544005072696E7465722068616C746545
:10210000642E206B696C6C28292063616C6C65649B
:10211000210A000000000000000000000000000094
:102120000048420000484200008040000000005784
:1021300061726E696E673A20486F6D696E67204202
:10214000756D702044697669736F72203C20310A86
:10215000000202040000A0400000A0400000004077
:1021600000005C4300005C4300008243FFFFFF5619
:1021700054726176206D696E005654726176206DDE
:10218000696E005654726176206D696E00566D69F5
:102190006E00566D696E00566D696E00566D617801
:1021A000204500566D6178204500566D61782045C8
:1021B00000566D6178205A00566D6178205A00569D
:1021C0006D6178205A00566D6178205900566D6116
:1021D00078205900566D6178205900566D6178203D
:1021E0005800566D6178205800566D61782058006F
:1021F0004D6F74696F6E00416D6178204500416DCF
:102200006178204500416D6178205A00416D617808
:10221000205A00416D6178205900416D6178205944
:1022200000416D6178205800416D6178205800416F
:102230002D74726176656C00412D74726176656CE7
:1022400000412D7265747261637400412D72657472
:102250007261637400416363656C00416363656C24
:10226000004D6F74696F6E004D6F76652058004D9C
:102270006F76652059004D6F7665205A0045787459
:102280007275646572004D6F766520302E316D6D0C
:10229000004D6F766520316D6D004D6F7665203194
:1022A000306D6D004D6F76652061786973004578FB
:1022B000747275646572004D6F7665205A004D6FBB
:1022C00076652059004D6F76652058004578747208
:1022D00075646572004D6F7665205A004D6F7665A6
:1022E0002059004D6F7665205800507265706172FC
:1022F000650001D206D311241FBECFEFD1E2DEBFAD
:10230000CDBF00E00CBF14E0A0E0B2E0EEE1F1ECE4
:1023100001E00BBF02C007900D92A83BB107D9F7AF
:1023200024E1A8EBB4E001C01D92A53EB207E1F79D
:1023300011E1CAE7D1E100E006C021970109802F31
:10234000FE010E94BEDFC937D10780E00807A9F768
:102350000E94D7C70C947EE00C9400002F923F920D
:102360004F925F926F927F928F929F92AF92BF92A5
:10237000CF92DF92EF92FF920F931F93CF93DF9351
:10238000CDB7DEB7C957D1090FB6F894DEBF0FBE7F
:10239000CDBF81E090E090934114809340148091F0
:1023A000DE148D3409F4F9C6843511F40C94222915
:1023B000873411F00C9470298091DC149091DD1415
:1023C0008430910509F414C554F497FF02C00C94AD
:1023D0008A2920911D02823091053CF521C08A3561
:1023E000910509F457C62CF44C9709F447C50C9491
:1023F0008A298B35910509F451C68C35910511F068
:102400000C948A290E944942F1E72F2EF2E03F2ED8
:10241000ABECEA2EA5E0FA2E00E0D12C10E068C665
:1024200021110C9491290C948A29222311F40C94E3
:102430008A2911E0029709F010E00E94093182E533
:102440000E94FD30882309F42AC10E949B306B0151
:102450007C014090CB055090CC056090CD057090EC
:10246000CE052091CF053091D0054091D1055091F6
:10247000D2052CA33DA34EA35FA38091511490914C
:102480005214A0915314B091541488A799A7AAA7E5
:10249000BBA7209155143091561440915714509178
:1024A00058142CA73DA74EA75FA720E030E0A90154
:1024B000C701B6010E94A0D8882309F47FC4A301F4
:1024C000920168A579A58AA59BA50E94A0D8811133
:1024D0000DC02CA13DA14EA15FA16CA57DA58EA52F
:1024E0009FA50E94A0D8882309F468C420E030E0AA
:1024F000A901C701B6010E94A0D8881F8827881F9C
:10250000181309C080E090E0A0E8BFE38CAF9DAF56
:10251000AEAFBFAF08C020E030E040E85FEB2CAFCB
:102520003DAF4EAF5FAFA301920168A579A58AA523
:102530009BA50E94B6DC6CAB7DAB8EAB9FAB2CA198
:102540003DA14EA15FA16CA57DA58EA59FA50E9472
:10255000B6DC68AF79AF8AAF9BAF2CA93DA94EA975
:102560005FA9CA01B9010E9405D94B015C0128ADE0
:1025700039AD4AAD5BADCA01B9010E9405D99B01D5
:10258000AC01C501B4010E94B7DC0E9422DF68AB38
:1025900079AB8AAB9BAB20E030E040E05FE30E9488
:1025A00005D94B015C01A7019601C701B6010E9444
:1025B00005D96B017C01A5019401C501B4010E94FC
:1025C00005D99B01AC01C701B6010E94B6DC0E948F
:1025D00022DF9B01AC016CAD7DAD8EAD9FAD0E9445
:1025E00005D94B015C0128A539A54AA55BA5C30106
:1025F000B2010E94B7DC20E030E040E05FE30E94DF
:1026000005D96B017C0168AD79AD8AAD9BAD905861
:1026100028A939A94AA95BA90E9493DD9B01AC01B5
:10262000C501B4010E9405D99B01AC01C701B601E7
:102630000E94B7DCA30192010E94B6DC6B017C0111
:102640002CA53DA54EA55FA56CA17DA18EA19FA146
:102650000E94B7DC20E030E040E05FE30E9405D953
:102660002B013C0128A939A94AA95BA96CA97DA91C
:102670008EA99FA90E9493DD9B01AC01C501B40105
:102680000E9405D99B01AC01C301B2010E94B7DCD5
:102690002CA13DA14EA15FA10E94B6DC14C089E42B
:1026A0000E94FD30882329F00E949B306B017C0141
:1026B00003C0C12CD12C76018AE40E94FD3088230E
:1026C000D9F00E949B306CA77DA78EA79FA720E022
:1026D00030E0A901C701B6010E94A0D881111AC03B
:1026E00020E030E0A9016CA57DA58EA59FA50E94E4
:1026F000A0D881110FC062C320E030E0A901C7015A
:10270000B6010E94A0D8882309F458C31CA61DA6B0
:102710001EA61FA6D701C601B0588CA39DA3AEA3C9
:10272000BFA32CA53DA54EA55FA5505828A739A746
:102730004AA75BA79C01AD01BC01CD010E9405D950
:102740004B015C0128A539A54AA55BA5CA01B901C1
:102750000E9405D99B01AC01C501B4010E94B7DC00
:102760000E9422DF60966CAF7DAF8EAF9FAF609707
:102770008091CB059091CC05A091CD05B091CE056F
:1027800088AB99ABAAABBBABA7019601BC01CD014D
:102790000E94B7DC6CAF7DAF8EAF9FAF2091CF05AD
:1027A0003091D0054091D1055091D20528AF39AF75
:1027B0004AAF5BAF2CA53DA54EA55FA568AD79AD31
:1027C0008AAD9BAD0E94B7DC24966CAF7DAF8EAF17
:1027D0009FAF24978091511490915214A09153145B
:1027E000B091541428968CAF9DAFAEAFBFAF289771
:1027F0002CAD3DAD4EAD5FADBC01CD010E94B6DC50
:102800006B017C012091551430915614409157145E
:10281000509158142C962CAF3DAF4EAF5FAF2C9714
:1028200024962CAD3DAD4EAD5FAD24972C966CAD8E
:102830007DAD8EAD9FAD2C970E94B6DC4B015C0147
:102840008091D3059091D405A091D505B091D6057E
:1028500068968CAF9DAFAEAFBFAF68979C01AD01DE
:102860006091591470915A1480915B1490915C148A
:102870000E94B6DC6CAB7DAB8EAB9FAB20915D1440
:1028800030915E1440915F145091601464962CAFA7
:102890003DAF4EAF5FAF64978091D7059091D8055B
:1028A000A091D905B091DA056C968CAF9DAFAEAF13
:1028B000BFAF6C97A70196016CA17DA18EA19FA1CE
:1028C0000E9405D92B013C01A501940168A579A5B9
:1028D0008AA59BA50E9405D99B01AC01C301B20149
:1028E0000E94B7DC2B013C01A50194016CA17DA1E4
:1028F0008EA19FA10E9405D94B015C01A701960101
:1029000068A579A58AA59BA50E9405D99B01AC0164
:10291000C501B4010E94B6DCA30192010E942ADD28
:102920006B017C0120E030E0A9010E94A0D887FF64
:102930000AC02BED3FE049EC50E4C701B6010E940C
:10294000B7DC6B017C01112351F02BED3FE049EC2A
:1029500050E4C701B6010E94B6DC6B017C0120E0A7
:1029600030E0A901C701B6010E94A0D8811124C09E
:1029700028962CAD3DAD4EAD5FAD289768A979A9DD
:102980008AA99BA90E94A0D8811116C02C962CADB3
:102990003DAD4EAD5FAD2C9768AD79AD8AAD9BADC9
:1029A0000E94A0D8811108C01BEDC12E1FE0D12EBE
:1029B00019ECE12E10E4F12E60962CAD3DAD4EAD3C
:1029C0005FAD6097C701B6010E9405D99B01AC01BC
:1029D0000E9405D94B015C012CA93DA94EA95FA914
:1029E000CA01B9010E9405D99B01AC01C501B4011E
:1029F0000E94B7DC0E9422DF4B015C012FE632E12E
:102A000043E85AE30E94A0D887FDD4C1C501B401B0
:102A10000E942CDE0E9400DE1B01672B19F4222489
:102A20002394312CB10180E090E00E94A4D84B01A6
:102A30005C019B01AC01C701B6010E9493DD68AB4C
:102A400079AB8AAB9BABA50194016CA97DA98EA93A
:102A50009FA90E9493DD60966CAF7DAF8EAF9FAF54
:102A600060976C962CAD3DAD4EAD5FAD6C976496A6
:102A70006CAD7DAD8EAD9FAD64970E94B6DCA501B7
:102A800094010E9493DD64966CAF7DAF8EAF9FAFD3
:102A9000649728A939A94AA95BA9CA01B9010E946A
:102AA00005D920E030E040E05FE30E9405D99B01BA
:102AB000AC0160E070E080E89FE30E94B6DC2896FD
:102AC0006CAF7DAF8EAF9FAF289768962CAD3DADB4
:102AD0004EAD5FAD689729873A874B875C876C96C8
:102AE0008CAD9DADAEADBFAD6C978D879E87AF872A
:102AF000B88B6091280270912902072E000C880B78
:102B0000990B0E94A6D820910002309101024091B9
:102B10000202509103020E9405D92AE037ED43E2F8
:102B20005CE30E9405D968A379A38AA39BA30E94B2
:102B3000A73A9B01AC0128533F4F4F4F5F4F2C9654
:102B40002CAF3DAF4EAF5FAF2C974CA05DA06EA0F9
:102B50007FA041E050E059AF48AF59E15CABA8AD70
:102B6000B9ADA215B30509F415C10E94DE6C0E942F
:102B7000A73ADC01CB012C962CAD3DAD4EAD5FAD3F
:102B80002C97821B930BA40BB50BB7FD10C00E94B2
:102B9000A73A9B01AC0128533F4F4F4F5F4F2C96F4
:102BA0002CAF3DAF4EAF5FAF2C970E9410B83CA941
:102BB00031503CAB332309F441C028962CAD3DADD8
:102BC0004EAD5FAD289768A579A58AA59BA50E9403
:102BD00005D96B017C0128A939A94AA95BA9B201D1
:102BE000C3010E9405D9A70196010E94B7DC6B01C1
:102BF0007C0128962CAD3DAD4EAD5FAD2897B2015E
:102C0000C3010E9405D94B015C0128A939A94AA931
:102C10005BA968A579A58AA59BA50E9405D99B01FA
:102C2000AC01C501B4010E94B6DC2B013C01C60118
:102C3000D70188A799A7AAA7BBA751C048AD59AD8E
:102C4000BA0180E090E00E94A4D828A939A94AA935
:102C50005BA90E9405D94B015C010E9490DD6B01CC
:102C60007C01C501B4010E9418DF4B015C01A70182
:102C700096016CA17DA18EA19FA10E9405D92B0177
:102C80003C01A50194016CA57DA58EA59FA50E9480
:102C900005D99B01AC01C301B2010E94B7DC2B0135
:102CA0003C01A50194016CA17DA18EA19FA10E9470
:102CB00005D94B015C01A70196016CA57DA58EA5E8
:102CC0009FA50E9405D99B01AC01C501B4010E94DA
:102CD000B6DC68A779A78AA79BA759E15CAB9201EC
:102CE000A3016CAD7DAD8EAD9FAD0E94B7DC698355
:102CF0007A838B839C8328A539A54AA55BA5249656
:102D00006CAD7DAD8EAD9FAD24970E94B7DC6D8319
:102D10007E838F83988760962CAD3DAD4EAD5FADC1
:102D2000609769857A858B859C850E94B7DC698769
:102D30007A878B879C8764962CAD3DAD4EAD5FAD99
:102D400064976D857E858F8598890E94B7DC6D8735
:102D50007E878F87988B80917002882321F0CE0127
:102D600001960E946BB6E12C8E01005E1F4F9E0102
:102D7000235F3F4FAE01475F5F4FBE016B5F7F4FE9
:102D8000CE0101960E9403C588AD99AD019699AF19
:102D900088AFE5CEE12C8E01005E1F4F2DE534E1BA
:102DA00049E554E165E574E181E594E10E9403C5DC
:102DB0000E94E3310E94ED310C948A29E9E1F0E2AE
:102DC00084918F010F5F1F4F882321F00E94F831FB
:102DD000F801F6CFE8EFF1E084918F010F5F1F4F0C
:102DE000882311F40C948A290E94F831F801F4CF59
:102DF00080E50E94FD30882329F00E945B306B0142
:102E00007C0103C0C12CD12C760183E50E94FD30EA
:102E1000882361F00E949B3020E030E04AE754E4D0
:102E20000E9405D90E9400DE6B017C010E9449428C
:102E300080912E02811105C060E08EE092E00E9438
:102E4000263F0E94ED318091491490914A14A0913F
:102E50004B14B0914C14C80ED91EEA1EFB1E0E94E2
:102E6000A73ADC01CB018C199D09AE09BF09B7FD5A
:102E700002C00C948A290E9410B8F1CF0E944942E6
:102E80008091000290910102A0910202B091030290
:102E90008093BF049093C004A093C104B093C20474
:102EA00080912802909129029093BE048093BD04E2
:102EB00084E690E090932902809328020E94ED31ED
:102EC00081E08093041188E50E94CE30E82E89E5E8
:102ED0000E94CE30082F8AE50E94CE30F82EE110F5
:102EE00005C0011105C011E0182705C0011102C07D
:102EF00010E001C0182F80E1EBECF5E0A1E5B4E1B2
:102F000001900D928A95E1F7111105C0E11003C0FF
:102F1000002309F492C01092591410925A1410927E
:102F20005B1410925C1420E030E0A9016091D3059D
:102F30007091D4058091D5059091D6050E94A0D8B6
:102F400087FF68C020910002309101024091020287
:102F5000509103022CA33DA34EA35FA3E7E2F1E24D
:102F600045905590659074904092000250920102F5
:102F700060920202709203021092D3051092D4055F
:102F80001092D5051092D6050E945B2F85E595E538
:102F9000A5E0B3E48093000290930102A0930202A3
:102FA000B09303020E945B2F8090591490905A14A2
:102FB000A0905B14B0905C14A50194016091D305BE
:102FC0007091D4058091D5059091D6050E94DDDEE3
:102FD000181694F44092000250920102609202028C
:102FE000709203028092D3059092D405A092D505E9
:102FF000B092D6050E945B2F0E9449428CA19DA1F0
:10300000AEA1BFA18093000290930102A09302029F
:10301000B0930302111105C0E11003C0011107C0F4
:103020000CC080E090E00E94DAB61123B9F381E091
:1030300090E00E94DAB6111102C0FF2021F082E078
:1030400090E00E94DAB60E94E72F809103118093EE
:1030500004118091BF049091C004A091C104B0916B
:10306000C2048093000290930102A0930202B093E5
:1030700003028091BD049091BE0490932902809335
:1030800028020E94ED3183E080932C020E94723767
:103090000C948A291092BC040C948A2981E08093B4
:1030A000BC040C948A290E949B302B013C01F7013F
:1030B00020813181428153810E94B6DC4B015C0149
:1030C0002DEB37E346E855EB0E94DDDE87FD18C0A7
:1030D0002DEB37E346E855E3C501B4010E94A0D8C3
:1030E000181674F01F5FB4E0EB0EF11C1430A9F059
:1030F000D1018D911D010E94FD30882399F3D3CF1A
:10310000133019F0DD24D39401C001E0D7014D92B2
:103110005D926D927C921397E5CFDD2019F00E94AD
:10312000E72F37C00023A9F1C090D705D090D8056C
:10313000E090D905F090DA052091830D3091840D4F
:103140004091850D5091860DC701B6010E9405D9A9
:103150000E94E8DE6093FD107093FE108093FF10D4
:1031600090930011C701B6010E94FBDD2FB7F894C0
:103170006093340D7093350D8093360D9093370D19
:103180002FBF1092ED101092EE101092EF101092CF
:10319000F0100E9472370C948A298091DC1490916F
:1031A000DD148137910509F4A0C40CF0DBC08B3429
:1031B000910509F4B2C30CF06CC08831910509F493
:1031C00093C2ECF58231910509F491C5FCF497FFA7
:1031D00002C00C948A29823091050CF49DC141975C
:1031E00011F00C948A2960E085E492E00E94263F69
:1031F0004298179815982E989FB7F89480910B01D4
:103200008D7F80930B019FBF0C948A298531910596
:1032100009F44FC23CF4449711F00C948A29EDE56F
:10322000F2E004C28631910509F447C2479711F0D4
:103230000C948A29E091DA14F091DB1448C28C31A5
:10324000910509F46EC264F48A31910509F457C2FC
:103250000CF063C2109233110E94929A0C948A2946
:103260008F31910509F4B3C244F44E9711F00C94D8
:103270008A290E944A320C948A298032910509F4E5
:103280005AC28A9711F00C948A290E94FF310C943B
:103290008A298836910509F44CC30CF044C0823564
:1032A000910509F41BC534F58D34910509F43DC32E
:1032B0000CF437C38135910511F00C948A290E94D2
:1032C0002F6A0E9449420E94BAB71092730E109260
:1032D000720E68EE73E080E090E00E94833E0E94F0
:1032E00049420E946F2F60E082E393E00E94263FF4
:1032F0000C948A298435910509F4F9C40CF4F2C4BC
:103300008535910509F426C58C35910511F00C948D
:103310008A2991E7C92E92E0D92E27E7E22E2DE0E7
:10332000F22E10E032C58C36910509F4DAC33CF474
:103330008A36910509F49BC40CF41FC4BDC48E36B3
:10334000910509F44AC30CF45CC48F36910509F465
:1033500057C38037910511F00C948A298FED92E0C4
:103360000E94C3B78D3C910511F40C94E4220CF03B
:1033700059C08139910509F492C64CF586379105FB
:1033800009F4DDC5A4F48337910509F484C50CF470
:103390007CC58537910511F00C948A2960E08091F5
:1033A000DA149091DB140E94443F0C948A298837E8
:1033B000910509F467C60CF401C68937910509F433
:1033C00068C68C38910509F4BCC30C948A298E3BDD
:1033D000910509F432C474F4833A910509F4D9C60D
:1033E000843A910509F422C78B39910511F00C94A8
:1033F0008A29E0C3893C910511F40C943C2234F4F1
:10340000883C910509F4F2C70C948A298B3C9105FC
:1034100011F40C945D228C3C910511F40C947A22E9
:103420000C948A298336E1E09E0711F40C94D3288A
:10343000A4F5823E910511F40C941E249CF48C3D5D
:10344000910511F40C94CA238D3D910511F40C944F
:10345000D723833D910511F00C948A29E1E4F0E231
:103460000C944F238D3221E0920711F40C947124B7
:103470003CF48C32914011F40C9448240C948A2929
:103480008F3251E0950711F40C948C2580339140D4
:1034900011F40C940F250C948A29843FB1E09B070A
:1034A00011F40C94CA28DCF48839F1E09F0781F10B
:1034B0004CF48039914011F00C948A290E944942C1
:1034C0000C948A29893941E09407F1F08A399140B6
:1034D00011F00C948A290E9487310C948A29863F26
:1034E000A1E09A0711F40C94D02814F40C94CD2880
:1034F000803AE3E09E0709F45DC1873E934011F4F2
:103500000C9410290C948A2906EF12E00C94BC2824
:1035100007E113E00C94AD28A090DA14B090DB140E
:1035200080E50E94FD30882359F00E945B306B01DA
:103530007C0111E0672B682B692B31F410E004C08B
:1035400010E0C12CD12C760183E50E94FD30882348
:10355000F1F00E949B3020E030E04AE754E40E9402
:1035600005D90E9400DE6B017C01111112C0672B8E
:10357000682B692B71F4A114B10459F0D5018C9119
:10358000882339F061E0C5010E94443F07C0112340
:1035900091F360E082E392E00E94263F83E090E0B6
:1035A000909341148093401481E08093B6070E9469
:1035B00049420E94ED31C114D104E104F104E9F063
:1035C0008091491490914A14A0914B14B0914C14DD
:1035D000C80ED91EEA1EFB1E0E94A73ADC01CB01D1
:1035E0008C199D09AE09BF09B7FF1CC08091B607B1
:1035F0008823C1F00E9410B8EFCF8091B6078823CE
:1036000019F00E9410B8F9CF8091231190912411E4
:1036100060E0029719F486E292E002C087E192E04E
:103620000E94263F1092B6070C948A2984918F013C
:103630000F5F1F4F882321F00E94F831F801F6CF69
:103640001092B9131092B81340E050E0BA018CE622
:1036500091E10E94B0738BE1ECE6F1E1DE01159699
:1036600001900D928A95E1F780916A1190916B110A
:103670009C838B838FEC92E09A83898340E050E0B7
:10368000BE016F5F7F4F82E594E00E9490AFCE0154
:1036900001960E94A8B7EEE4F2E084918F010F5FDB
:1036A0001F4F882311F40C948A290E94F831F801E5
:1036B000F4CF0E947C980C948A29109233111092B6
:1036C00034110C948A29803209F410823196808159
:1036D0008111F9CF40E061E08091DA149091DB1420
:1036E0000E94CCB10C948A2980913411882319F05E
:1036F00081E0809333110E94529A0C948A29809120
:103700003411882311F40C948A2983E50E94FD303A
:1037100081110C94202A0C948A290E94AC9A0C9452
:103720008A2940E060E08091DA149091DB140E94D5
:10373000CCB10C948A298091331181110E944942A5
:1037400080913411882311F40C948A2980E50E9419
:10375000FD30882319F00E948C3003C080E50E9460
:10376000CE30182F482F61E08091DA149091DB144D
:103770000E94CCB183E50E94FD30882381F00E9435
:103780006B30AB01BC0140936411509365116093A1
:1037900066117093671186E093E10E94B073809187
:1037A0003411882319F081E08093331111110C94A6
:1037B0008A29A1CF8091DA149091DB1421E0209323
:1037C000321140E060E00E94CCB10C948A290E9442
:1037D00029B6ECE3CE2ED12CE12CF12CA7019601D9
:1037E0000E947BDC762E672ECA01B901A7019601E3
:1037F0000E947BDC6B017C01CA01B90128E130E049
:1038000040E050E00E947BDC4B015C01C9016DE6A9
:1038100071E00E947BDF8E010F5F1F4F6115710504
:1038200099F06F927F92DF92CF929F928F929F93A7
:103830008F937F936F9386E992E09F938F931F936B
:103840000F930E9439D812C00097B1F06F927F9207
:10385000DF92CF929F928F929F938F9386E892E010
:103860009F938F931F930F930E9439D80FB6F894AC
:10387000DEBF0FBECDBF36C081149104A104B104D8
:1038800079F06F927F92DF92CF929F928F928AE728
:1038900092E09F938F931F930F930E9439D8E6CFA6
:1038A000C114D104E104F10469F06F927F92DF92B8
:1038B000CF9282E792E09F938F931F930F930E9482
:1038C00039D8D4CF6F927F928EE692E09F938F93F8
:1038D0001F930F930E9439D80F900F900F900F9065
:1038E0000F900F9060E0C8010E94443FE1E4F0E2D5
:1038F00084917F019FEFE91AF90A882321F00E9441
:10390000F831F701F5CFB8018AEA92E00E9484C34A
:103910008AE00E94F8310C948A290E94529A0C94F1
:103920008A290E94929A0C948A290E943FB50C948D
:103930008A2988E690E00E946E3681110C948A29CB
:103940008091A71483FF02C00C948A2983E50E940A
:10395000FD30882309F43DC00E949B300E94FBDDAE
:103960007093770E6093760E0E949B3020E030E0DB
:103970004AEA52E40E94A0D818163CF00E943FB5D3
:1039800060E08EEB92E00E94263F0E949B302091E7
:10399000500E3091510E4091520E5091530E0E9494
:1039A000DDDE1816B4F487E393E09F938F93809144
:1039B000C70D90E001969F938F9387EB92E09F93C2
:1039C0008F931F920E94379A0FB6F894DEBF0FBEF6
:1039D000CDBF0E9427D30C948A298EE40E94FD302B
:1039E000882311F40C948A290E946B306093830E13
:1039F0007093840E8093850E9093860E0C948A2982
:103A000083E50E94CE30882359F083E50E94FD3083
:103A1000882319F00E947B3001C080E08093A714B6
:103A2000E1E4F0E284918F010F5F1F4F882321F0C2
:103A30000E94F831F801F6CFE8EDF2E084918F01B1
:103A40000F5F1F4F882321F00E94F831F801F6CF55
:103A50008091A7148823A1F15AECC52E52E0D52EEF
:103A6000E12CF12C20E08091A71490E00E2C02C0F4
:103A7000959587950A94E2F780FF17C0BB24B3940D
:103A8000B20E222319F08CE20E94F831F601259142
:103A90003491F901849189010F5F1F4F882321F030
:103AA0000E94F8319801F5CF2B2DFFEFEF1AFF0A96
:103AB00032E0C30ED11C45E0E416F104A1F60CC0BF
:103AC000E4EDF2E084918F010F5F1F4F882321F016
:103AD0000E94F831F801F6CF8AE00E94F8310C9488
:103AE0008A2910922D020C948A2983E50E94FD30C8
:103AF000882369F00E947B308D3320F480936B0221
:103B00000C948A298CE380936B020C948A29E1E45B
:103B1000F0E284918F010F5F1F4F882321F00E94F4
:103B2000F831F801F6CF40916B0250E060E070E0B0
:103B300088EE92E00E94964B8AE00E94F8310C9445
:103B40008A298091A71483FF02C00C948A2983E5F7
:103B50000E94FD30882311F40C948A290E949B3026
:103B60000E94FBDD6739710514F066E970E070931F
:103B7000750E6093740E0C948A2989E690E00E9479
:103B80006E36811111C0EFEEF2E084918F010F5F6C
:103B90001F4F882321F00E94F831F801F6CF0E94D0
:103BA000A3698AE00E94F8311092411410924014E7
:103BB0000C94B62E83E50E94FD30882311F40C94FA
:103BC0008A290E947B30182F8D3308F01CE3109354
:103BD00046140E94A73A6B017C01212F30E0A8EE29
:103BE000B3E00E94A7DCC60ED71EE81EF91EC092E5
:103BF0004214D0924314E0924414F09245140C9471
:103C00008A298DE690E00E946E3681110C948A29F3
:103C10008091A71483FF02C00C948A2983E50E9437
:103C2000FD308CA781110C94302A82E50E94FD3072
:103C300081110C94302A0C948A298091A71483FF57
:103C400002C00C948A2960E085E293E00E94263F3E
:103C500083E50E94FD308CA781110C94972B82E59F
:103C60000E94FD3081110C94972B0C948A2980E5D9
:103C70000E94FD30811108C083E50E94FD30811152
:103C800009C03FEF20E00AC00E947B3081110C94F4
:103C90008A29F2CF0E946B30362F272F832F922F45
:103CA0008F3F910519F010F08FEF90E09093730E15
:103CB0008093720E0C948A2980E50E94FD30811158
:103CC00006C01092730E1092720E0C948A290E94F4
:103CD0006B30672B11F00C948A29F3CF1092BB0440
:103CE0000C948A2981E08093BB040C948A2983E593
:103CF0000E94FD308823A1F00E949B3020E030E03C
:103D00004AE754E40E9405D90E9400DE60936C02E9
:103D100070936D0280936E0290936F020C948A29C7
:103D200088E50E94CE3081110C94D22C89E50E9446
:103D3000CE3081110C94D22C8AE50E94CE308111B4
:103D40000C94D22C85E40E94CE3081110C94D22C9C
:103D50000C94F12C83E50E94CE30882311F40C944E
:103D60008A290E949B3020E030E04AE754E40E9418
:103D700005D90E9400DE60934D1470934E14809319
:103D80004F14909350140C948A29D6018D916D0193
:103D90000E94CE30882309F46DC0133009F063C04F
:103DA0000E949B304B015C0120E030E040EA51E48E
:103DB0000E94A0D887FF4EC0A50194016091830D99
:103DC0007091840D8091850D9091860D0E9493DDF8
:103DD0002B013C019B01AC016091730D7091740D3E
:103DE0008091750D9091760D0E9405D96093730DA9
:103DF0007093740D8093750D9093760DA3019201CD
:103E000060917D1470917E1480917F149091801444
:103E10000E9405D960937D1470937E1480937F1463
:103E2000909380146091B8147091B9148091BA1471
:103E30009091BB140E94A4D8A30192010E9405D9BD
:103E40000E9400DE6093B8147093B9148093BA1482
:103E50009093BB148092830D9092840DA092850D57
:103E6000B092860D07C00E949B30F701608371837A
:103E7000828393831F5FF4E0EF0EF11C143009F08E
:103E800084CF0E94D9C40C948A290E9449420E947E
:103E900072370C948A29E3EFF3E084918F010F5F6E
:103EA0001F4F882321F00E94F831F801F6CF60E01F
:103EB00083EE93E00E94C23661E08CED93E00E94B5
:103EC000C23661E081ED93E00E94C23661E081EC90
:103ED00093E00E94C23660E088EB93E00E94C23615
:103EE00061E08EEA93E00E94C23660E084EA93E0EB
:103EF0000E94C23660E08CE993E00E94C23660E026
:103F00008EE893E00E94C23660E080E893E00E9471
:103F1000C23660E081E793E00E94C23661E083E64A
:103F200093E00E94C23661E08DE493E00E94C236C5
:103F300060E08CE393E00E94C2360C948A2985E409
:103F40000E94FD30882319F00E948C3003C085E464
:103F50000E94CE30882361F0E1E4F0E284918F0189
:103F60000F5F1F4F882321F00E94F831F801F6CF30
:103F700081E40E94FD30882319F00E948C3003C038
:103F800081E40E94CE30882361F0E3EBF4E0849179
:103F90008F010F5F1F4F882321F00E94F831F80135
:103FA000F6CF0091DA141091DB14D8018D918D01B8
:103FB000882309F491CD0E94F831F7CFEFECF4E0BB
:103FC00084918F010F5F1F4F882321F00E94F831E9
:103FD000F801F6CFE7ECF4E084918F010F5F1F4FFB
:103FE000882321F00E94F831F801F6CF029B03C02C
:103FF00003EE12E002C008EE12E0F80181918F0199
:10400000882319F00E94F831F8CF8AE00E94F83135
:10401000EFEBF4E084918F010F5F1F4F882321F0B5
:104020000E94F831F801F6CF069B03C003EE12E0C0
:1040300002C008EE12E0D8018D918D01882319F09D
:104040000E94F831F8CF8AE00E94F831E7EBF4E003
:1040500084918F010F5F1F4F882321F00E94F83158
:10406000F801F6CF379B03C003EE12E002C008EE62
:1040700012E0F80181918F01882309F42DCD0E946F
:10408000F831F7CF81E080930411809303110C94F1
:104090008A2910920411109203110C948A2983E545
:1040A0000E94FD30882319F00E946B3002C060E04E
:1040B00070E08B01112702301105D4F0E9E1F0E244
:1040C00084918F010F5F1F4F882321F00E94F831E8
:1040D000F801F6CFE9EEF4E084918F010F5F1F4FF6
:1040E000882311F40C948A290E94F831F801F4CF46
:1040F00088E40E94FD308823A9F00E946B306A3A60
:1041000071053CF06530F1E07F072CF064E071E070
:1041100002C06AEA70E0F801EE0FFF1FED55F24FA2
:104120007183608386E40E94FD308823A9F00E9499
:104130006B30F801EE0FFF1FE955F24F718360837A
:104140006F3F710519F014F06FEF70E077FF02C058
:1041500060E070E07183608382E40E94FD30882318
:1041600011F40C948A290E946B306530710534F08B
:10417000683871052CF067E870E002C065E070E017
:10418000000F111FF801E156F24F718360830C9408
:104190008A2983E50E94FD30882349F00E946B3014
:1041A0008B016230710514F00C948A2902C000E082
:1041B00010E080E50E94FD30882359F00E949B307A
:1041C0006B017C0120E030E0A9010E94A0D887FFAC
:1041D00004C060E070E0CB011CC02DEB37E346E883
:1041E00055EBC701B6010E94DDDE87FD0AC02DEB4D
:1041F00037E346E855E3C701B6010E94A0D8181678
:1042000044F7A701960160E070E080E89FE30E9418
:1042100093DD000F111F000F111FF801EF5BFA4F24
:1042200060837183828393830C948A2983E50E943F
:10423000FD30882349F00E946B308B01603171059D
:1042400014F00C948A2902C000E010E0C0904105EF
:10425000D0904205E0904305F09044052DEB37E304
:1042600046E855EBC701B6010E94DDDE87FF09C0B5
:10427000A701960160E070E080E89FE30E9493DD73
:104280000DC02DEB37E346E855E3C701B6010E94A8
:10429000A0D818166CF360E070E0CB0120E030E0AD
:1042A000A9010E94B7DC4B015C01C0904505D0908C
:1042B0004605E0904705F09048052DEB37E346E8CA
:1042C00055EBC701B6010E94DDDE87FF0BC0A701D9
:1042D000960160E070E080E89FE30E9493DD9B011F
:1042E000AC010DC02DEB37E346E855E3C701B6013D
:1042F0000E94A0D818165CF320E030E0A901C501A7
:10430000B4010E94B7DC4B015C0120E030E040E8E2
:104310005FE30E94B6DC6B017C012DEB37E346E8DE
:1043200055EB0E94DDDE87FF03C0EBE0F5E00EC039
:104330002DEB37E346E855E3C701B6010E94A0D84C
:1043400018169CF332C00E94F831F70184917F0166
:104350002FEFE21AF20A8111F6CFA50194016091C4
:1043600041057091420580914305909144050E945A
:1043700005D960934105709342058093430590935E
:104380004405A50194016091450570914605809111
:104390004705909148050E9405D9609345057093A3
:1043A00046058093470590934805E3E0000F111FF1
:1043B000EA95E1F7F801E75BFA4F809141059091AA
:1043C0004205A0914305B091440580839183A28367
:1043D000B3838091450590914605A0914705B09122
:1043E000480584839583A683B78394C788EC90E0BF
:1043F0000E946E3681118EC784E40E94CE308823DD
:10440000C1F10E949B3011E020E030E0A9010E9440
:10441000A0D8811101C010E010938C0D112349F137
:104420000E949B30E091C70D34E0E39FF00111241E
:10443000E857F24F608371838283938320E030E0FA
:10444000A9016091880D7091890D80918A0D9091DC
:104450008B0D0E94A0D881110CC080E090E0A0EEEE
:10446000BFE38093880D9093890DA0938A0DB0933C
:104470008B0D0E94AEA14EC761E8E62E64E1F62ED8
:1044800001E712E074E0D72ED00ED8018D918D0196
:104490000E94CE30882349F00E949B300E9400DEAB
:1044A000F7016083718382839383F4E0EF0EF11C44
:1044B000D012EBCF0E94ACC32DC741E7E42E44E1FC
:1044C000F42E01E712E054E0D52ED00ED8018D91E4
:1044D0008D010E94CE30882339F00E949B30F70175
:1044E0006083718382839383F4E0EF0EF11CD0121A
:1044F000EDCF10C783E50E94CE308823D9F00E940B
:104500009B30AB01BC014093991450939A14609373
:104510009B1470939C144093911450939214609345
:1045200093147093941488E995E00E94D04B8AE02C
:104530000E94F83180E50E94CE30882399F00E94D5
:104540009B30AB01BC014093991450939A14609333
:104550009B1470939C148BE795E00E94D04B8AE0EB
:104560000E94F83182E50E94CE30882399F00E94A3
:104570009B30AB01BC01409395145093961460930B
:104580009714709398148CE595E00E94D04B8AE0C4
:104590000E94F83184E50E94CE30882309F4BAC61F
:1045A0000E949B30AB01BC01409391145093921434
:1045B00060939314709394148EE395E00E94D04B13
:1045C0008AE00E94F831A6C683E50E94CE30882397
:1045D00051F00E949B3060936D1470936E14809321
:1045E0006F149093701484E50E94CE30882351F0AC
:1045F0000E949B306093691470936A1480936B14CB
:1046000090936C1482E40E94CE30882351F00E9473
:104610005B306093AB107093AC108093AD109093AF
:10462000AE1088E50E94CE30882351F00E949B3066
:104630006093670D7093680D8093690D90936A0D78
:1046400089E50E94CE30882351F00E949B30609310
:104650006B0D70936C0D80936D0D90936E0D8AE5CC
:104660000E94CE30882351F00E949B3060936F0DE2
:104670007093700D8093710D9093720D85E40E947C
:10468000CE30882309F446C60E949B306093730D98
:104690007093740D8093750D9093760D3BC6849145
:1046A0008F010F5F1F4F882321F00E94F831F8011E
:1046B000F6CF83E50E94CE30882321F00E948C3013
:1046C00080937002E8EEF5E084918F010F5F1F4F39
:1046D000882321F00E94F831F801F6CF8091700212
:1046E000811103C0E4EEF5E002C0E0EEF5E0849154
:1046F0008F010F5F1F4F882321F00E94F831F801CE
:10470000F6CFE8EDF5E084918F010F5F1F4F88230E
:1047100021F00E94F831F801F6CF40E050E0BA01F4
:1047200086ED95E00E94D04B40E050E0BA0183ED69
:1047300095E00E94D04B40E050E0BA0180ED95E05A
:104740000E94D04BE8ECF5E084918F010F5F1F4F82
:10475000882321F00E94F831F801F6CF40E050E0C4
:104760006CE573E486EC95E00E94D04B40E050E0AD
:104770006CE573E483EC95E00E94D04B40E050E0A0
:1047800062E873E480EC95E00E94D04B8AE00E94DE
:10479000F831C0C583E50E94FD30882309F4BAC50D
:1047A0000E946B307093290260932802B3C58DED8F
:1047B00090E00E946E368111ADC583E50E94FD3008
:1047C000882309F4A7C50091C70D10E00E946B3043
:1047D000000F111FF801EA5DFD4F71836083809126
:1047E000C70D90E08C01000F111F000F111F9801E1
:1047F0002E5D3D4F7901880F991FFC01EA5DFD4F49
:1048000060817181072E000C880B990B0E94A6D83D
:104810002AE037ED43E25CE30E9405D9F801E15F4D
:10482000F14F20813181428153810E9405D9D70106
:104830006D937D938D939C9313976CC580E50E9437
:10484000CE30882309F466C50E946B306B017C0171
:1048500083E50E94FD30882321F00E946B308B019C
:1048600002C00FEF1FEFC8010196039708F052C571
:10487000D7FC50C59C2DE8EFF5E08BE28E0F24911C
:10488000921709F447C531968E13F9CF0C948E2EEA
:1048900083E50E94FD30882319F00E946B3002C02E
:1048A00064E071E079A368A380E50E94FD3088236D
:1048B00039F00E946B306938B3E17B0730F402C0F5
:1048C00068EE73E07A83698304C088E893E19A8391
:1048D0008983BE01605E7F4FCE0101960E94039ADC
:1048E00019C585E40E94FD30811110C080E50E9449
:1048F000CE30882391F00E949B306093920D70938C
:10490000930D8093940D9093950D07C00E947B307A
:10491000882361F3E9E1F0E271C089E40E94CE30BE
:10492000882381F00E949B302CEA35EC47E25EE35D
:104930000E9405D960939A0D70939B0D80939C0DF6
:1049400090939D0D84E40E94CE30882381F00E94D4
:104950009B302CEA35EC47E25EE30E9493DD6093E6
:10496000960D7093970D8093980D9093990DE1E4B7
:10497000F0E284918F010F5F1F4F882321F00E9486
:10498000F831F801F6CF4091920D5091930D60915E
:10499000940D7091950D8BE296E00E94D04B2CEA1D
:1049A00035EC47E25EE360919A0D70919B0D80912A
:1049B0009C0D90919D0D0E9493DDAB01BC0187E29F
:1049C00096E00E94B34B2CEA35EC47E25EE360913F
:1049D000960D7091970D8091980D9091990D0E9470
:1049E00005D9AB01BC0183E296E00E94B34B8AE09B
:1049F0000E94F8318FC40E94F831F80184918F0130
:104A00000F5F1F4F8111F7CF02E413E0F80181918E
:104A10008F01882309F460C80E94F831F7CF80E540
:104A20000E94CE30882351F00E949B306093BF0DCE
:104A30007093C00D8093C10D9093C20D89E40E94C4
:104A4000CE30882381F00E949B302CEA35EC47E27F
:104A50005EE30E9405D96093BB0D7093BC0D8093FB
:104A6000BD0D9093BE0D84E40E94CE30882381F06A
:104A70000E949B302CEA35EC47E25EE30E9493DD16
:104A80006093B70D7093B80D8093B90D9093BA0DE4
:104A9000E1E4F0E284918F010F5F1F4F882321F042
:104AA0000E94F831F801F6CF4091BF0D5091C00D32
:104AB0006091C10D7091C20D87E396E00E94D04BCA
:104AC0002CEA35EC47E25EE36091BB0D7091BC0DC2
:104AD0008091BD0D9091BE0D0E9493DDAB01BC0194
:104AE00083E396E00E94B34B2CEA35EC47E25EE3A9
:104AF0006091B70D7091B80D8091B90D9091BA0D7C
:104B00000E9405D9AB01BC018FE296E00E94B34B35
:104B10008AE00E94F831FEC385E40E94FD308823BC
:104B200021F00E946B307B0102C0E12CF12C83E468
:104B30000E94FD30882331F00E946B30A3966FAF46
:104B4000A39704C025E0A3962FAFA39785E50E9405
:104B5000FD30882319F00E948C3003C085E50E9447
:104B6000CE30AE968FAFAE97F7FC07C0812C912C5C
:104B7000A6E1AA2EA3E4BA2E06C0812C912CFCE853
:104B8000AF2EF2E4BF2E83E50E94FD30882321F092
:104B90000E949B304B015C01E114F10411F410926E
:104BA000C70D0E94A73A2B013C0181E08E0D823097
:104BB00018F403E513E00CC006E613E0D8018D916C
:104BC0008D01882311F40C946C1D0E94F831F6CFEE
:104BD000F80181918F01882319F00E94F831F8CFF4
:104BE000E8A68AE00E94F8310E942F6AF8A5F7FF34
:104BF00004C08FE78093C60D07C0EE2DEE0CFF0BAF
:104C0000EB53F24F8FE78083C501B4010E94FBDDB7
:104C1000072E000C880B990B0E94A6D86CAF21962A
:104C20007FAF219725968FAF259729969FAF29971C
:104C300081E080932D02A9964CAE5DAE6EAE7FAE44
:104C4000A997E2964CAE5DAE6EAE7FAEE2976596EA
:104C50001FAE659720E469962FAF69973CE12D96CA
:104C60003FAF2D9746E461964FAF61976D961FAEAB
:104C70006D976E961FAE6E976F961FAE6F97A0964C
:104C80001FAEA09718AE19AE1AAE1BAE1CAA1DAA75
:104C90001EAA1FAAC12CD12C76018FE790E0A0E0BC
:104CA000B0E08CA39DA3AEA3BFA37FE7872E912C7A
:104CB000A12CB12CAD961CAE1DAE1EAE1FAEAD9795
:104CC00091E0A5969FAFA59719AA18AA10E0212CEC
:104CD000312C00E0A8A58A2FAA0F990BFC01EB53F9
:104CE000F24FE496FFAFEEAFE497880F991F880F5D
:104CF000991F9C01205B314FA2963FAF2EAFA29728
:104D0000A3964FADA397042E000C550BA4965FAF4E
:104D10004EAFA49780912D02882309F41AC10E94F6
:104D2000A73A6CA77DA78EA79FA78091C30D882364
:104D300009F4EDC00E94BC6C58A557FF09C0109142
:104D4000540E2090550E3090560E0091570E0DC007
:104D5000A296AEADBFADA2971C9111962C90119763
:104D600012963C90129713960C91212F322D432DC1
:104D7000502F6D966FAD6D976E967FAD6E976F9657
:104D80008FAD6F97A0969FADA0970E94A0D887FF88
:104D90000CC06D961FAF6D976E962FAE6E976F9687
:104DA0003FAE6F97A0960FAFA097212F322D432DC6
:104DB000502F65966FAD659769967FAD69972D9673
:104DC0008FAD2D9761969FAD61970E94DDDE18161D
:104DD00064F465961FAF659769962FAE69972D9617
:104DE0003FAE2D9761960FAF6197A596BFADA59782
:104DF0002CAD21963FAD219725964FAD259729964D
:104E00005FAD2997612F722D832D902FBB2309F45D
:104E100064C00E94DDDE18160CF079C02CA53DA5FB
:104E20004EA55FA52419350946095709EA962CAF06
:104E30003DAF4EAF5FAFEA97DA01C90188589341A1
:104E4000A109B109B7FD63C0D501C4012CA13DA1E1
:104E50004EA15FA1821B930BA40BB50B38A5B59592
:104E6000A7959795879537FF03C08093C60D05C01A
:104E7000E496EEADFFADE4978083EA962CAD3DADB0
:104E80004EAD5FADEA97AD962CAF3DAF4EAF5FAF85
:104E9000AD973CAD6D963FAF6D9721964FAD219785
:104EA0006E964FAF6E9725965FAD25976F965FAF65
:104EB0006F9729968FAD2997A0968FAFA0972CA5B5
:104EC0003DA54EA55FA5A9962CAF3DAF4EAF5FAFF8
:104ED000A997A5961FAEA5971AC00E94A0D887FFD4
:104EE00016C08CA59DA5AEA5BFA5A9962CAD3DADC0
:104EF0004EAD5FADA997821B930BA40BB50BAC0114
:104F0000BD01485853416109710977FF6FC520E021
:104F100030E040EA51E46CAD21967FAD21972596B3
:104F20008FAD259729969FAD29970E94B7DC9B01ED
:104F3000AC01612F722D832D902F0E94DDDE18169B
:104F40007CF4E8EFF6E084918F010F5F1F4F811131
:104F500003C00E942F6ADEC10E94F831F801F3CF2E
:104F60008CA59DA5AEA5BFA5E2962CAD3DAD4EADE1
:104F70005FADE297821B930BA40BB50BB7FD13C07B
:104F80000E94A3698AE00E94F8318CA59DA5AEA578
:104F9000BFA58053984FAF4FBF4FE2968CAF9DAFE8
:104FA000AEAFBFAFE2978CA59DA5AEA5BFA5880FFC
:104FB000991FAA1FBB1FA9962CAD3DAD4EAD5FAD8D
:104FC000A997821B930BA40BB50B84199509A6090D
:104FD000B70981389F44A241B10568F0EAEDF6E0D7
:104FE00084918F010F5F1F4F882309F4B2CF0E9475
:104FF000F831F801F5CF48A959A9A4968EAD9FAD17
:10500000A497841795070CF0A5C0EDE7F6E084910E
:105010008F010F5F1F4F882321F00E94F831F801A4
:10502000F6CF98A597FD03C002E514E002C002EF99
:1050300012E0B8018BE696E00E9484C3B701A60196
:1050400087E696E00E94D04B8AE00E94F831B801D2
:1050500085E596E00E9484C34CA95DA96EA97FA94D
:1050600081E596E00E94D04B8AE00E94F831B801B9
:105070008FE396E00E9484C348AD59AD6AAD7BAD25
:105080008BE396E00E94D04B8AE00E94F831AE9606
:10509000AFADAE97AA2309F43DC1B8A5B7FF2DC0A7
:1050A000C092BF0DD092C00DE092C10DF092C20D22
:1050B0002CEA35EC47E25EE36CA97DA98EA99FA995
:1050C0000E9405D96093BB0D7093BC0D8093BD0DFC
:1050D0009093BE0D2CEA35EC47E25EE368AD79AD06
:1050E0008AAD9BAD0E9493DD6093B70D7093B80DB0
:1050F0008093B90D9093BA0D0DC1C092920DD092CC
:10510000930DE092940DF092950D2CEA35EC47E268
:105110005EE36CA97DA98EA99FA90E9405D9609321
:105120009A0D70939B0D80939C0D90939D0D2CEA8E
:1051300035EC47E25EE368AD79AD8AAD9BAD0E9488
:1051400093DD6093960D7093970D8093980D9093D7
:10515000990DE0C00E94543FDDCDF80181918F018F
:10516000882319F00E94F831F8CF8AE00E94F831C4
:1051700081E08093870DCEC0D8018D918D01882369
:1051800019F00E94F831F8CF8AE00E94F8311092AD
:10519000870DC0C00E94D954BDC00E945E7FBAC0B6
:1051A0000E94307EB7C080E50E94FD30882329F040
:1051B000A2D78093C90511E001C010E083E50E94E9
:1051C000FD30882321F0A8D78093CA0501C01111B2
:1051D00061D6E1E4F0E284918F010F5F1F4F8823D5
:1051E00021F00E94F831F801F6CF8091CA058111B3
:1051F0000CC00FE813E0F80181918F01882311F4AE
:105200000C946C1D0E94F831F6CF6091C90570E0D6
:105210008CE697E00E946BC38AE00E94F8317AC066
:1052200081E080931D021092800E83E5E6D78823EB
:1052300011F072D702C083E5B1D781116BC00E9413
:1052400095BA68C0E091DC14F091DD14FE2E2FE0D9
:105250002E1708F1FF2783E0EE0FFF1F8A95E1F775
:10526000E75BFA4F80819181A281B38180934105F0
:1052700090934205A0934305B093440584819581A2
:10528000A681B7818093450590934605A093470575
:10529000B09348053FC0E1E4F0E284918F010F5FD5
:1052A0001F4F882321F00E94F831F801F6CF84E5E2
:1052B0000E94F8316F2D70E080E090E04AE00E949B
:1052C000083680E20E94F83102E413E0D8018D91A3
:1052D0008D01882311F40C946C1D0E94F831F6CFD7
:1052E000E1E4F0E284918F010F5F1F4F882321F0EA
:1052F0000E94F831F801F6CF60914714709148147C
:1053000089E797E00E9484C382E20E94F8318AE034
:105310000E94F83110924114109240140E9476BA03
:1053200025C577D780917002882321F081E594E12B
:105330000E946BB60E94ED318091A71483FD52C08C
:10534000C0905D14D0905E14E0905F14F0906014F3
:105350008090D7059090D805A090D905B090DA0537
:10536000A5019401C701B6010E94A0D8882309F4C1
:1053700039C0A5019401C701B6010E94B6DC9F7730
:105380002091220230912302409124025091250263
:105390000E9405D920E030E048E453E40E94DDDEBD
:1053A000181604F5C092D705D092D805E092D90519
:1053B000F092DA05E1E4F0E284918F010F5F1F4F74
:1053C000882321F00E94F831F801F6CFE9EDF1E0F1
:1053D00084918F010F5F1F4F882321F00E94F831C5
:1053E000F801F6CF6091280270912902072E000C77
:1053F000880B990B0E94A6D82091000230910102DF
:1054000040910202509103020E9405D92AE037ED33
:1054100043E25CE30E9405D969837A838B839C8392
:10542000E12C8E010F5F1F4F2DE534E149E554E17A
:1054300065E574E181E594E10E9403C5C4D76ACFB4
:105440004AD6AB01BC01409364115093651160933F
:1054500066117093671186E093E10E94B0735ACF92
:105460006AD60E94FBDD7093770E6093760E63D64A
:1054700020E030E04AEA52E40E94A0D8181644F036
:105480000E943FB560E08BE093E00E94263F02C09F
:105490000E94529A6091760E7091770E072E000C42
:1054A000880B990B0E94A6D82091500E3091510E76
:1054B0004091520E5091530E0E94DDDE1816B4F446
:1054C00087E393E09F938F938091C70D90E00196BF
:1054D0009F938F9384E093E09F938F931F920E94FA
:1054E000379A0FB6F894DEBF0FBECDBF0E9427D308
:1054F00081E080932D0218A619A61AA61BA618AA49
:1055000019AA1AAA1BAA1CA21CAA9CE398AFACE178
:10551000ACAFB6E42196BFAF2197E12CF12C00E8A7
:105520001FEB812C912C54016091760E7091770EB7
:10553000072E000C880B990B0E94A6D8762E672E9A
:10554000582E492E262F372F482F592FB701C80123
:105550000E94A0D8882311F12091500E3091510E55
:105560004091520E5091530E672D762D852D942D1E
:105570000E94A0D8881F8827881F8CA3ECA5EE2343
:1055800089F0882379F080912D02882309F4C2CE16
:1055900060E082EF92E00E94263FBCCE7E2C6F2C12
:1055A000502E412E0E94A73A6B017C01DC01CB01F9
:1055B00028A939A94AA95BA9821B930BA40BB50B97
:1055C000B7FD37C0D701C60188519C4FAF4FBF4FC1
:1055D00088AB99ABAAABBBAB0E94A369E0E0F3E058
:1055E00084918F010F5F1F4F882319F001D7F801B5
:1055F000F7CF81149104A104B104B9F0D501C4011D
:10560000805F984DAF4FBF4FBC01CD016C197D0934
:105610008E099F0928EE33E040E050E00E947BDCD9
:10562000CA01B9010E94A83602C08FE3E1D68AE020
:10563000DFD60E9410B8D1D62090500E3090510E77
:105640000091520E1091530E9101A801672D762DF5
:10565000852D942D0E94B6DC9F7781149104A104BE
:10566000B10449F420E030E040E85FE30E94A0D8B4
:1056700087FF0BC008C020E030E040E450E40E9407
:10568000DDDE181614F4460157019CA1992399F107
:1056900028A539A54AA55BA5211531054105510568
:1056A00041F0D701C601821B930BA40BB50BB7FDCC
:1056B00022C09101A8016CA978AD8CAD21969FAD57
:1056C00021970E94B6DC20E030E040EC5FE30E94CE
:1056D000A0D887FD58CFD701C601805A9541AF4F5A
:1056E000BF4F88A799A7AAA7BBA72CAA38AE0CAF13
:1056F00021961FAF219780912D02882309F443CF73
:1057000081149104A104B10429F4E72CF62C052D91
:10571000142D0ACF90E1C91A97E2D90AE108F108DD
:10572000C818D908EA08FB08F7FE2DCFEECF03D53D
:105730000E94FBDD6739710514F066E970E0709333
:10574000750E6093740EF7D420E030E040EA50E428
:105750000E94DDDE181614F40E94529A81E08093B4
:105760002D021092C70D18A619A61AA61BA618AAD4
:1057700019AA1AAA1BAA1CA21CAAACE3A8AFBCE1D6
:10578000BCAFE6E42196EFAF2197C12CD12C30E8D5
:10579000E32E4FEBF42E812C912C54016091740E6A
:1057A0007091750E072E000C880B990B0E94A6D8DD
:1057B000162F072F782E692E262F372F482F592F77
:1057C000B601C7010E94A0D8882311F12091540E80
:1057D0003091550E4091560E5091570E612F702FFB
:1057E000872D962D0E94A0D8881F8827881F8CA3FC
:1057F000FCA5FF2389F0882379F080912D0288236E
:1058000009F488CD60E087E193E00E94263F82CDD5
:105810001C2D0D2D7E2C6F2C0E94A73A6B017C0154
:10582000DC01CB0128A939A94AA95BA9821B930BEA
:10583000A40BB50BB7FD38C0D701C60188519C4FEA
:10584000AF4FBF4F88AB99ABAAABBBAB0E94A3696C
:10585000E1E2F3E084912F019FEF491A590A88236E
:1058600019F0C6D5F201F6CF81149104A104B10458
:10587000B9F0D501C401805F984DAF4FBF4FBC0157
:10588000CD016C197D098E099F0928EE33E040E0B7
:1058900050E00E947BDCCA01B9010E94A83602C018
:1058A0008FE3A6D58AE0A4D50E9410B896D52090A3
:1058B000540E3090550E4090560E5090570E910158
:1058C000A201612F702F872D962D0E94B6DC9F7745
:1058D00081149104A104B10449F420E030E040E8CF
:1058E0005FE30E94A0D887FF0BC008C020E030E033
:1058F00040E450E40E94DDDE181614F4460157011E
:10590000ACA1AA2399F128A539A54AA55BA5211523
:1059100031054105510541F0D701C601821B930BAA
:10592000A40BB50BB7FD22C09101A2016CA978AD03
:105930008CAD21969FAD21970E94B6DC20E030E02F
:1059400040EC5FE30E94A0D887FD57CFD701C60186
:10595000805A9541AF4FBF4F88A799A7AAA7BBA769
:105960002CAA38AE4CAE21965FAE219780912D02C5
:10597000882309F442CF81149104A104B10429F4CD
:10598000C12ED02EE72CF62C09CF90E1C91A97E250
:10599000D90AE108F108C818D908EA08FB08F7FE97
:1059A0002CCFEECF0E94494288E5F8D3882319F026
:1059B000429A10923E0589E5F1D3882319F0179A8F
:1059C00010923F058AE5EAD3882319F0159A1092C0
:1059D000400585E4E3D3882309F49CCC0E94B0B74A
:1059E00099CC0E9449420E94BAB794CC48A959A9BF
:1059F000452B09F457C1AD964CAC5DAC6EAC7FAC99
:105A0000AD97480E591E6A1E7B1EAD962CAD3DAD5E
:105A10004EAD5FADAD97281B390B4A0B5B0BCA012E
:105A2000B9012CA13DA14EA15FA10E946CDCA30194
:105A300092010E94A2DF820E931EA41EB51E34E1C5
:105A400083169104A104B104FCF04CEE8416910479
:105A5000A104B1043CF450E885169104A104B104FA
:105A600034F420C05BEE852E912CA12CB12C8EEF4E
:105A700090E0A0E0B0E088199909AA09BB098CA3BD
:105A80009DA3AEA3BFA312C044E1842E912CA12CF0
:105A9000B12C24E130E040E050E02CA33DA34EA324
:105AA0005FA304C08CA29DA2AEA2BFA2E4E6F7E071
:105AB00084919F012F5F3F4F882379F0E5962FAFA8
:105AC000E597E6963FAFE69793D4E5962FADE59739
:105AD000E6963FADE697F901EBCFC501B4010E9410
